{
  "contractName": "Router",
  "abi": [
    {
      "inputs": [],
      "stateMutability": "nonpayable",
      "type": "constructor"
    },
    {
      "anonymous": false,
      "inputs": [
        {
          "indexed": true,
          "internalType": "address",
          "name": "to",
          "type": "address"
        },
        {
          "indexed": false,
          "internalType": "uint256",
          "name": "value",
          "type": "uint256"
        }
      ],
      "name": "DistributeFunds",
      "type": "event"
    },
    {
      "stateMutability": "payable",
      "type": "fallback",
      "payable": true
    },
    {
      "inputs": [],
      "name": "_contractOwner",
      "outputs": [
        {
          "internalType": "address payable",
          "name": "",
          "type": "address"
        }
      ],
      "stateMutability": "view",
      "type": "function",
      "constant": true
    },
    {
      "inputs": [
        {
          "internalType": "address",
          "name": "",
          "type": "address"
        }
      ],
      "name": "distributionKey",
      "outputs": [
        {
          "internalType": "uint16",
          "name": "basePoint",
          "type": "uint16"
        },
        {
          "internalType": "uint16",
          "name": "index",
          "type": "uint16"
        }
      ],
      "stateMutability": "view",
      "type": "function",
      "constant": true
    },
    {
      "inputs": [
        {
          "internalType": "uint256",
          "name": "",
          "type": "uint256"
        }
      ],
      "name": "shareholders",
      "outputs": [
        {
          "internalType": "address payable",
          "name": "",
          "type": "address"
        }
      ],
      "stateMutability": "view",
      "type": "function",
      "constant": true
    },
    {
      "inputs": [],
      "name": "totalBasePoints",
      "outputs": [
        {
          "internalType": "uint16",
          "name": "",
          "type": "uint16"
        }
      ],
      "stateMutability": "view",
      "type": "function",
      "constant": true
    },
    {
      "stateMutability": "payable",
      "type": "receive",
      "payable": true
    },
    {
      "inputs": [
        {
          "internalType": "address payable",
          "name": "owner",
          "type": "address"
        }
      ],
      "name": "setContractOwner",
      "outputs": [],
      "stateMutability": "nonpayable",
      "type": "function"
    },
    {
      "inputs": [],
      "name": "getShareholdersLength",
      "outputs": [
        {
          "internalType": "uint256",
          "name": "",
          "type": "uint256"
        }
      ],
      "stateMutability": "view",
      "type": "function",
      "constant": true
    },
    {
      "inputs": [
        {
          "internalType": "address payable",
          "name": "shareHolder_",
          "type": "address"
        },
        {
          "internalType": "uint16",
          "name": "basePoint_",
          "type": "uint16"
        }
      ],
      "name": "setShareHolder",
      "outputs": [],
      "stateMutability": "nonpayable",
      "type": "function"
    },
    {
      "inputs": [],
      "name": "distributeFunds",
      "outputs": [],
      "stateMutability": "nonpayable",
      "type": "function"
    },
    {
      "inputs": [],
      "name": "withdrawlAllFunds",
      "outputs": [],
      "stateMutability": "nonpayable",
      "type": "function"
    }
  ],
  "bytecode": "0x608060405234801561001057600080fd5b5033600260006101000a81548173ffffffffffffffffffffffffffffffffffffffff021916908373ffffffffffffffffffffffffffffffffffffffff160217905550611491806100616000396000f3fe60806040526004361061008a5760003560e01c8063ab377daa11610059578063ab377daa14610115578063ae4a951c14610152578063d040239e1461017b578063ec23bb9c146101a6578063f3047940146101e457610091565b80632bb3b114146100935780633a6a4d2e146100be5780636382126b146100d5578063a34d42b8146100ec57610091565b3661009157005b005b34801561009f57600080fd5b506100a861020f565b6040516100b59190611106565b60405180910390f35b3480156100ca57600080fd5b506100d3610235565b005b3480156100e157600080fd5b506100ea61052b565b005b3480156100f857600080fd5b50610113600480360381019061010e9190610f7f565b610626565b005b34801561012157600080fd5b5061013c60048036038101906101379190610fe4565b6106fa565b6040516101499190611106565b60405180910390f35b34801561015e57600080fd5b5061017960048036038101906101749190610fa8565b610739565b005b34801561018757600080fd5b50610190610ea1565b60405161019d91906111a5565b60405180910390f35b3480156101b257600080fd5b506101cd60048036038101906101c89190610f56565b610eae565b6040516101db92919061117c565b60405180910390f35b3480156101f057600080fd5b506101f9610eee565b6040516102069190611161565b60405180910390f35b600260009054906101000a900473ffffffffffffffffffffffffffffffffffffffff1681565b600260009054906101000a900473ffffffffffffffffffffffffffffffffffffffff1673ffffffffffffffffffffffffffffffffffffffff163373ffffffffffffffffffffffffffffffffffffffff16146102c5576040517f08c379a00000000000000000000000000000000000000000000000000000000081526004016102bc90611141565b60405180910390fd5b600047905060005b60018054905081101561051f5760006127106000806001858154811061031c577f4e487b7100000000000000000000000000000000000000000000000000000000600052603260045260246000fd5b9060005260206000200160009054906101000a900473ffffffffffffffffffffffffffffffffffffffff1673ffffffffffffffffffffffffffffffffffffffff1673ffffffffffffffffffffffffffffffffffffffff16815260200190815260200160002060000160009054906101000a900461ffff1661ffff16846103a2919061123a565b6103ac9190611209565b9050600182815481106103e8577f4e487b7100000000000000000000000000000000000000000000000000000000600052603260045260246000fd5b9060005260206000200160009054906101000a900473ffffffffffffffffffffffffffffffffffffffff1673ffffffffffffffffffffffffffffffffffffffff166108fc829081150290604051600060405180830381858888f19350505050158015610458573d6000803e3d6000fd5b5060018281548110610493577f4e487b7100000000000000000000000000000000000000000000000000000000600052603260045260246000fd5b9060005260206000200160009054906101000a900473ffffffffffffffffffffffffffffffffffffffff1673ffffffffffffffffffffffffffffffffffffffff167f57f62f78cd64dbafa0af8dacd3628cfacb90f5bdfae93cea13cd5a590e848a108260405161050391906111a5565b60405180910390a250808061051790611358565b9150506102cd565b5061052861052b565b50565b600260009054906101000a900473ffffffffffffffffffffffffffffffffffffffff1673ffffffffffffffffffffffffffffffffffffffff163373ffffffffffffffffffffffffffffffffffffffff16146105bb576040517f08c379a00000000000000000000000000000000000000000000000000000000081526004016105b290611141565b60405180910390fd5b600260009054906101000a900473ffffffffffffffffffffffffffffffffffffffff1673ffffffffffffffffffffffffffffffffffffffff166108fc479081150290604051600060405180830381858888f19350505050158015610623573d6000803e3d6000fd5b50565b600260009054906101000a900473ffffffffffffffffffffffffffffffffffffffff1673ffffffffffffffffffffffffffffffffffffffff163373ffffffffffffffffffffffffffffffffffffffff16146106b6576040517f08c379a00000000000000000000000000000000000000000000000000000000081526004016106ad90611141565b60405180910390fd5b80600260006101000a81548173ffffffffffffffffffffffffffffffffffffffff021916908373ffffffffffffffffffffffffffffffffffffffff16021790555050565b6001818154811061070a57600080fd5b906000526020600020016000915054906101000a900473ffffffffffffffffffffffffffffffffffffffff1681565b600260009054906101000a900473ffffffffffffffffffffffffffffffffffffffff1673ffffffffffffffffffffffffffffffffffffffff163373ffffffffffffffffffffffffffffffffffffffff16146107c9576040517f08c379a00000000000000000000000000000000000000000000000000000000081526004016107c090611141565b60405180910390fd5b6127106000808473ffffffffffffffffffffffffffffffffffffffff1673ffffffffffffffffffffffffffffffffffffffff16815260200190815260200160002060000160009054906101000a900461ffff1682600260149054906101000a900461ffff1661083891906111d1565b6108429190611294565b61ffff161115610887576040517f08c379a000000000000000000000000000000000000000000000000000000000815260040161087e90611121565b60405180910390fd5b600047111561089957610898610235565b5b6000808373ffffffffffffffffffffffffffffffffffffffff1673ffffffffffffffffffffffffffffffffffffffff16815260200190815260200160002060000160009054906101000a900461ffff1681600260149054906101000a900461ffff1661090591906111d1565b61090f9190611294565b600260146101000a81548161ffff021916908361ffff160217905550806000808473ffffffffffffffffffffffffffffffffffffffff1673ffffffffffffffffffffffffffffffffffffffff16815260200190815260200160002060000160006101000a81548161ffff021916908361ffff160217905550600061ffff166000808473ffffffffffffffffffffffffffffffffffffffff1673ffffffffffffffffffffffffffffffffffffffff16815260200190815260200160002060000160029054906101000a900461ffff1661ffff16148015610a8f575060006001805490501480610a8e57506001600081548110610a33577f4e487b7100000000000000000000000000000000000000000000000000000000600052603260045260246000fd5b9060005260206000200160009054906101000a900473ffffffffffffffffffffffffffffffffffffffff1673ffffffffffffffffffffffffffffffffffffffff168273ffffffffffffffffffffffffffffffffffffffff1614155b5b15610b5d576001805490506000808473ffffffffffffffffffffffffffffffffffffffff1673ffffffffffffffffffffffffffffffffffffffff16815260200190815260200160002060000160026101000a81548161ffff021916908361ffff1602179055506001829080600181540180825580915050600190039060005260206000200160009091909190916101000a81548173ffffffffffffffffffffffffffffffffffffffff021916908373ffffffffffffffffffffffffffffffffffffffff160217905550610e9d565b60008161ffff161415610e9c576000808373ffffffffffffffffffffffffffffffffffffffff1673ffffffffffffffffffffffffffffffffffffffff16815260200190815260200160002060000160029054906101000a900461ffff166000806001808080549050610bcf91906112c8565b81548110610c06577f4e487b7100000000000000000000000000000000000000000000000000000000600052603260045260246000fd5b9060005260206000200160009054906101000a900473ffffffffffffffffffffffffffffffffffffffff1673ffffffffffffffffffffffffffffffffffffffff1673ffffffffffffffffffffffffffffffffffffffff16815260200190815260200160002060000160026101000a81548161ffff021916908361ffff1602179055506001808080549050610c9a91906112c8565b81548110610cd1577f4e487b7100000000000000000000000000000000000000000000000000000000600052603260045260246000fd5b9060005260206000200160009054906101000a900473ffffffffffffffffffffffffffffffffffffffff1660016000808573ffffffffffffffffffffffffffffffffffffffff1673ffffffffffffffffffffffffffffffffffffffff16815260200190815260200160002060000160029054906101000a900461ffff1661ffff1681548110610d89577f4e487b7100000000000000000000000000000000000000000000000000000000600052603260045260246000fd5b9060005260206000200160006101000a81548173ffffffffffffffffffffffffffffffffffffffff021916908373ffffffffffffffffffffffffffffffffffffffff1602179055506001805480610e09577f4e487b7100000000000000000000000000000000000000000000000000000000600052603160045260246000fd5b6001900381819060005260206000200160006101000a81549073ffffffffffffffffffffffffffffffffffffffff0219169055905560008060008473ffffffffffffffffffffffffffffffffffffffff1673ffffffffffffffffffffffffffffffffffffffff16815260200190815260200160002060000160026101000a81548161ffff021916908361ffff1602179055505b5b5050565b6000600180549050905090565b60006020528060005260406000206000915090508060000160009054906101000a900461ffff16908060000160029054906101000a900461ffff16905082565b600260149054906101000a900461ffff1681565b600081359050610f11816113ff565b92915050565b600081359050610f2681611416565b92915050565b600081359050610f3b8161142d565b92915050565b600081359050610f5081611444565b92915050565b600060208284031215610f6857600080fd5b6000610f7684828501610f02565b91505092915050565b600060208284031215610f9157600080fd5b6000610f9f84828501610f17565b91505092915050565b60008060408385031215610fbb57600080fd5b6000610fc985828601610f17565b9250506020610fda85828601610f2c565b9150509250929050565b600060208284031215610ff657600080fd5b600061100484828501610f41565b91505092915050565b6110168161130e565b82525050565b60006110296038836111c0565b91507f5468652073756d206f6620646973747269627574696f6e206b6579732063616e60008301527f6e6f7420626520626967676572207468616e20313030252e00000000000000006020830152604082019050919050565b600061108f6026836111c0565b91507f4f6e6c79206f776e6572206861732061636365737320746f207468697320667560008301527f6e6374696f6e00000000000000000000000000000000000000000000000000006020830152604082019050919050565b6110f181611320565b82525050565b6111008161134e565b82525050565b600060208201905061111b600083018461100d565b92915050565b6000602082019050818103600083015261113a8161101c565b9050919050565b6000602082019050818103600083015261115a81611082565b9050919050565b600060208201905061117660008301846110e8565b92915050565b600060408201905061119160008301856110e8565b61119e60208301846110e8565b9392505050565b60006020820190506111ba60008301846110f7565b92915050565b600082825260208201905092915050565b60006111dc82611320565b91506111e783611320565b92508261ffff038211156111fe576111fd6113a1565b5b828201905092915050565b60006112148261134e565b915061121f8361134e565b92508261122f5761122e6113d0565b5b828204905092915050565b60006112458261134e565b91506112508361134e565b9250817fffffffffffffffffffffffffffffffffffffffffffffffffffffffffffffffff0483118215151615611289576112886113a1565b5b828202905092915050565b600061129f82611320565b91506112aa83611320565b9250828210156112bd576112bc6113a1565b5b828203905092915050565b60006112d38261134e565b91506112de8361134e565b9250828210156112f1576112f06113a1565b5b828203905092915050565b60006113078261132e565b9050919050565b60006113198261132e565b9050919050565b600061ffff82169050919050565b600073ffffffffffffffffffffffffffffffffffffffff82169050919050565b6000819050919050565b60006113638261134e565b91507fffffffffffffffffffffffffffffffffffffffffffffffffffffffffffffffff821415611396576113956113a1565b5b600182019050919050565b7f4e487b7100000000000000000000000000000000000000000000000000000000600052601160045260246000fd5b7f4e487b7100000000000000000000000000000000000000000000000000000000600052601260045260246000fd5b611408816112fc565b811461141357600080fd5b50565b61141f8161130e565b811461142a57600080fd5b50565b61143681611320565b811461144157600080fd5b50565b61144d8161134e565b811461145857600080fd5b5056fea26469706673582212209765b13dfbe7ed8a4ea9112b8f11477b119e9a223d278c527d8fb3fe55caf0b464736f6c63430008000033",
  "immutableReferences": {},
  "source": "//SPDX-License-Identifier: UNLICENSED\"\npragma solidity ^0.8.0;\n\n\n/**\n * @title A routing contract to distribute funds\n * @author Kasper De Blieck\n * @notice This contract will receive funds and distribute them to other shareholder addresses via a distribution key.\n * The contract owner is responsable for setting and updating the shareholders and triggering the payout.\n */\ncontract Router {\n    \n    // Event to notify shareholders of pay outs\n    event DistributeFunds(address indexed to, uint256 value);\n\n    // Struct with shareholder info\n    struct ShareHolderStruct{\n        uint16 basePoint; //the amount of base points (0.1%, or 0.0001) he owns of incoming funds\n        uint16 index; // index in the shareholder in the shareholders array keeping all shareholders\n    }\n \n    // Mapping to link a shareholder address to it's data\n    mapping(address => ShareHolderStruct) public distributionKey;\n  \n    // Array to keep track of share holders present\n    address payable[] public shareholders;\n  \n    address payable public _contractOwner;\n  \n    // Used to make sure at most 100% is being routed\n    uint16 public totalBasePoints;\n  \n    // MODIFIERS\n    modifier onlyOwner() {\n        require(msg.sender == _contractOwner, \"Only owner has access to this function\");\n        _;\n    }\n  \n    modifier onlyShareHolder() {\n        require(distributionKey[msg.sender].basePoint > 0, \"Only shareholders with a share have access to this function\");\n        _;\n    }\n\n  \n    // FUNCTIONS\n    constructor (){\n        _contractOwner = payable(msg.sender);\n    }\n  \n    /**\n    * @dev receive and fallback in order to receive Ether on the contract address\n    */\n    receive() external payable {}\n    fallback() external payable {}\n\n    /**\n    * @notice Change the contract owner\n    * @param owner the address of the new contract owner\n    */\n    function setContractOwner(address payable owner) external onlyOwner {\n        _contractOwner = owner;\n    }\n\n    /**\n     * @return Returns the amount of shareholders\n     */\n    function getShareholdersLength() view external returns(uint){\n        return shareholders.length;\n    }\n  \n    /**\n    * @notice Function to add, remove or update shareholders.\n    * To remove, just set basePoint_ to 0.\n    * Before updating the distribution key, the existing balance will be settled\n    * @param shareHolder_ address of the new shareholder\n    * @param basePoint_ the share of the shareholder in basePoint (0.1%)\n    */\n    function setShareHolder(address payable shareHolder_, uint16 basePoint_) external onlyOwner{\n        // Check if the new value does not result in a payout of more than 100%\n        require((totalBasePoints + basePoint_ - distributionKey[shareHolder_].basePoint ) <= 10000,\n            \"The sum of distribution keys cannot be bigger than 100%.\");\n  \n        // If there are still funds left, pay them out before updating the distribution keys\n        if (address(this).balance > 0) {\n            distributeFunds();\n        }\n  \n        // Update sum of all shareholder basepoints\n        totalBasePoints = totalBasePoints + basePoint_ - distributionKey[shareHolder_].basePoint;\n      \n        // Set the share\n        distributionKey[shareHolder_].basePoint = basePoint_;\n      \n        // If the shareholder did not exist, add him to the list of shareholders and save the index.\n        // Check for the edge case the index in the mapping has default value 0, but is actual the first element in the list\n        if ((distributionKey[shareHolder_].index == uint16(0)) && ((shareholders.length == 0) || (shareHolder_ != shareholders[0]))){\n            distributionKey[shareHolder_].index = uint16(shareholders.length);\n            shareholders.push(shareHolder_);\n        }\n        // Else, check if the shareholder needs to be deleted from the shareholder list\n        else if (basePoint_ == 0){\n        // Order does not mather in the list, overwrite the address-to-delete with the last address\n        // and delete the last address to avoid gaps in the array\n            distributionKey[shareholders[shareholders.length-1]].index = distributionKey[shareHolder_].index;\n            shareholders[distributionKey[shareHolder_].index] = shareholders[shareholders.length-1];\n\n            shareholders.pop();\n            distributionKey[shareHolder_].index = 0;\n        }\n    }\n  \n    /**\n    * @notice Function for each shareholder to withdrawl his remaining funds from the contract.\n    */\n    function distributeFunds() public onlyOwner{\n        // Keep track of initial share\n        uint256 totalShare = address(this).balance;\n        // For each shareholder, calculate the share and send it\n        for (uint i = 0; i < shareholders.length; i++) {\n            uint256 share = totalShare * uint256(distributionKey[shareholders[i]].basePoint) / 10000;\n            shareholders[i].transfer(share);\n            emit DistributeFunds(shareholders[i], share);\n        }\n  \n        // Send remaining funds to the contract owner\n        withdrawlAllFunds();\n  \n    }\n  \n\n    /**\n    * @notice Function for the owner to withdrawl all funds from the contract.\n    */\n    function withdrawlAllFunds() public onlyOwner{\n        _contractOwner.transfer(address(this).balance);\n    }\n \n}\n",
  "sourcePath": "/Users/Baas/repos/envoy/repos/routing-contract/Contracts/contracts/Router.sol",
  "compiler": {
    "name": "solc",
    "version": "0.8.0+commit.c7dfd78e.Emscripten.clang"
  },
  "schemaVersion": "3.4.2",
  "updatedAt": "2021-09-08T19:00:01.572Z",
  "networkType": "ethereum",
  "devdoc": {
    "author": "Kasper De Blieck",
    "kind": "dev",
    "methods": {
      "getShareholdersLength()": {
        "returns": {
          "_0": "Returns the amount of shareholders"
        }
      },
      "setContractOwner(address)": {
        "params": {
          "owner": "the address of the new contract owner"
        }
      },
      "setShareHolder(address,uint16)": {
        "params": {
          "basePoint_": "the share of the shareholder in basePoint (0.1%)",
          "shareHolder_": "address of the new shareholder"
        }
      }
    },
    "title": "A routing contract to distribute funds",
    "version": 1
  },
  "userdoc": {
    "kind": "user",
    "methods": {
      "distributeFunds()": {
        "notice": "Function for each shareholder to withdrawl his remaining funds from the contract."
      },
      "setContractOwner(address)": {
        "notice": "Change the contract owner"
      },
      "setShareHolder(address,uint16)": {
        "notice": "Function to add, remove or update shareholders. To remove, just set basePoint_ to 0. Before updating the distribution key, the existing balance will be settled"
      },
      "withdrawlAllFunds()": {
        "notice": "Function for the owner to withdrawl all funds from the contract."
      }
    },
    "notice": "This contract will receive funds and distribute them to other shareholder addresses via a distribution key. The contract owner is responsable for setting and updating the shareholders and triggering the payout.",
    "version": 1
  }
}