{
  "contractName": "Router",
  "abi": [
    {
      "inputs": [],
      "stateMutability": "nonpayable",
      "type": "constructor"
    },
    {
      "stateMutability": "payable",
      "type": "fallback"
    },
    {
      "stateMutability": "payable",
      "type": "receive"
    },
    {
      "inputs": [
        {
          "internalType": "address payable",
          "name": "owner",
          "type": "address"
        }
      ],
      "name": "setContractOwner",
      "outputs": [],
      "stateMutability": "nonpayable",
      "type": "function"
    },
    {
      "inputs": [
        {
          "internalType": "address payable",
          "name": "shareHolder_",
          "type": "address"
        },
        {
          "internalType": "uint16",
          "name": "basePoint_",
          "type": "uint16"
        }
      ],
      "name": "setShareHolder",
      "outputs": [],
      "stateMutability": "nonpayable",
      "type": "function"
    },
    {
      "inputs": [],
      "name": "distributeFunds",
      "outputs": [],
      "stateMutability": "nonpayable",
      "type": "function"
    },
    {
      "inputs": [],
      "name": "withDrawlAllFunds",
      "outputs": [],
      "stateMutability": "nonpayable",
      "type": "function"
    }
  ],
  "bytecode": "0x608060405234801561001057600080fd5b5033600260006101000a81548173ffffffffffffffffffffffffffffffffffffffff021916908373ffffffffffffffffffffffffffffffffffffffff160217905550610f43806100616000396000f3fe6080604052600436106100435760003560e01c806339048c7a1461004c5780633a6a4d2e14610063578063a34d42b81461007a578063ae4a951c146100a35761004a565b3661004a57005b005b34801561005857600080fd5b506100616100cc565b005b34801561006f57600080fd5b506100786101c7565b005b34801561008657600080fd5b506100a1600480360381019061009c9190610b41565b610405565b005b3480156100af57600080fd5b506100ca60048036038101906100c59190610b6a565b6104d9565b005b600260009054906101000a900473ffffffffffffffffffffffffffffffffffffffff1673ffffffffffffffffffffffffffffffffffffffff163373ffffffffffffffffffffffffffffffffffffffff161461015c576040517f08c379a000000000000000000000000000000000000000000000000000000000815260040161015390610c92565b60405180910390fd5b600260009054906101000a900473ffffffffffffffffffffffffffffffffffffffff1673ffffffffffffffffffffffffffffffffffffffff166108fc479081150290604051600060405180830381858888f193505050501580156101c4573d6000803e3d6000fd5b50565b600260009054906101000a900473ffffffffffffffffffffffffffffffffffffffff1673ffffffffffffffffffffffffffffffffffffffff163373ffffffffffffffffffffffffffffffffffffffff1614610257576040517f08c379a000000000000000000000000000000000000000000000000000000000815260040161024e90610c92565b60405180910390fd5b60005b6001805490508110156103fa576000612710600080600185815481106102a9577f4e487b7100000000000000000000000000000000000000000000000000000000600052603260045260246000fd5b9060005260206000200160009054906101000a900473ffffffffffffffffffffffffffffffffffffffff1673ffffffffffffffffffffffffffffffffffffffff1673ffffffffffffffffffffffffffffffffffffffff16815260200190815260200160002060000160009054906101000a900461ffff1661ffff164761032f9190610d2c565b6103399190610cfb565b905060018281548110610375577f4e487b7100000000000000000000000000000000000000000000000000000000600052603260045260246000fd5b9060005260206000200160009054906101000a900473ffffffffffffffffffffffffffffffffffffffff1673ffffffffffffffffffffffffffffffffffffffff166108fc829081150290604051600060405180830381858888f193505050501580156103e5573d6000803e3d6000fd5b505080806103f290610e38565b91505061025a565b506104036100cc565b565b600260009054906101000a900473ffffffffffffffffffffffffffffffffffffffff1673ffffffffffffffffffffffffffffffffffffffff163373ffffffffffffffffffffffffffffffffffffffff1614610495576040517f08c379a000000000000000000000000000000000000000000000000000000000815260040161048c90610c92565b60405180910390fd5b80600260006101000a81548173ffffffffffffffffffffffffffffffffffffffff021916908373ffffffffffffffffffffffffffffffffffffffff16021790555050565b600260009054906101000a900473ffffffffffffffffffffffffffffffffffffffff1673ffffffffffffffffffffffffffffffffffffffff163373ffffffffffffffffffffffffffffffffffffffff1614610569576040517f08c379a000000000000000000000000000000000000000000000000000000000815260040161056090610c92565b60405180910390fd5b6103e86000808473ffffffffffffffffffffffffffffffffffffffff1673ffffffffffffffffffffffffffffffffffffffff16815260200190815260200160002060000160009054906101000a900461ffff1682600260149054906101000a900461ffff166105d89190610cc3565b6105e29190610d86565b61ffff1610610626576040517f08c379a000000000000000000000000000000000000000000000000000000000815260040161061d90610c72565b60405180910390fd5b6000471115610638576106376101c7565b5b6000808373ffffffffffffffffffffffffffffffffffffffff1673ffffffffffffffffffffffffffffffffffffffff16815260200190815260200160002060000160009054906101000a900461ffff1681600260149054906101000a900461ffff166106a49190610cc3565b6106ae9190610d86565b600260146101000a81548161ffff021916908361ffff160217905550806000808473ffffffffffffffffffffffffffffffffffffffff1673ffffffffffffffffffffffffffffffffffffffff16815260200190815260200160002060000160006101000a81548161ffff021916908361ffff16021790555060008060008473ffffffffffffffffffffffffffffffffffffffff1673ffffffffffffffffffffffffffffffffffffffff16815260200190815260200160002060000160029054906101000a900461ffff1661ffff1614801561081a575060016000815481106107bf577f4e487b7100000000000000000000000000000000000000000000000000000000600052603260045260246000fd5b9060005260206000200160009054906101000a900473ffffffffffffffffffffffffffffffffffffffff1673ffffffffffffffffffffffffffffffffffffffff168273ffffffffffffffffffffffffffffffffffffffff1614155b156108e8576001805490506000808473ffffffffffffffffffffffffffffffffffffffff1673ffffffffffffffffffffffffffffffffffffffff16815260200190815260200160002060000160026101000a81548161ffff021916908361ffff1602179055506001829080600181540180825580915050600190039060005260206000200160009091909190916101000a81548173ffffffffffffffffffffffffffffffffffffffff021916908373ffffffffffffffffffffffffffffffffffffffff160217905550610b13565b60008161ffff161415610b125760018080805490506109079190610dba565b8154811061093e577f4e487b7100000000000000000000000000000000000000000000000000000000600052603260045260246000fd5b9060005260206000200160009054906101000a900473ffffffffffffffffffffffffffffffffffffffff1660016000808573ffffffffffffffffffffffffffffffffffffffff1673ffffffffffffffffffffffffffffffffffffffff16815260200190815260200160002060000160029054906101000a900461ffff1661ffff16815481106109f6577f4e487b7100000000000000000000000000000000000000000000000000000000600052603260045260246000fd5b9060005260206000200160006101000a81548173ffffffffffffffffffffffffffffffffffffffff021916908373ffffffffffffffffffffffffffffffffffffffff1602179055506001808080549050610a509190610dba565b81548110610a87577f4e487b7100000000000000000000000000000000000000000000000000000000600052603260045260246000fd5b9060005260206000200160006101000a81549073ffffffffffffffffffffffffffffffffffffffff021916905560008060008473ffffffffffffffffffffffffffffffffffffffff1673ffffffffffffffffffffffffffffffffffffffff16815260200190815260200160002060000160026101000a81548161ffff021916908361ffff1602179055505b5b5050565b600081359050610b2681610edf565b92915050565b600081359050610b3b81610ef6565b92915050565b600060208284031215610b5357600080fd5b6000610b6184828501610b17565b91505092915050565b60008060408385031215610b7d57600080fd5b6000610b8b85828601610b17565b9250506020610b9c85828601610b2c565b9150509250929050565b6000610bb3603883610cb2565b91507f5468652073756d206f6620646973747269627574696f6e206b6579732063616e60008301527f6e6f7420626520626967676572207468616e20313030252e00000000000000006020830152604082019050919050565b6000610c19602683610cb2565b91507f4f6e6c79206f776e6572206861732061636365737320746f207468697320667560008301527f6e6374696f6e00000000000000000000000000000000000000000000000000006020830152604082019050919050565b60006020820190508181036000830152610c8b81610ba6565b9050919050565b60006020820190508181036000830152610cab81610c0c565b9050919050565b600082825260208201905092915050565b6000610cce82610e00565b9150610cd983610e00565b92508261ffff03821115610cf057610cef610e81565b5b828201905092915050565b6000610d0682610e2e565b9150610d1183610e2e565b925082610d2157610d20610eb0565b5b828204905092915050565b6000610d3782610e2e565b9150610d4283610e2e565b9250817fffffffffffffffffffffffffffffffffffffffffffffffffffffffffffffffff0483118215151615610d7b57610d7a610e81565b5b828202905092915050565b6000610d9182610e00565b9150610d9c83610e00565b925082821015610daf57610dae610e81565b5b828203905092915050565b6000610dc582610e2e565b9150610dd083610e2e565b925082821015610de357610de2610e81565b5b828203905092915050565b6000610df982610e0e565b9050919050565b600061ffff82169050919050565b600073ffffffffffffffffffffffffffffffffffffffff82169050919050565b6000819050919050565b6000610e4382610e2e565b91507fffffffffffffffffffffffffffffffffffffffffffffffffffffffffffffffff821415610e7657610e75610e81565b5b600182019050919050565b7f4e487b7100000000000000000000000000000000000000000000000000000000600052601160045260246000fd5b7f4e487b7100000000000000000000000000000000000000000000000000000000600052601260045260246000fd5b610ee881610dee565b8114610ef357600080fd5b50565b610eff81610e00565b8114610f0a57600080fd5b5056fea26469706673582212201881402208752b693ac4028326be826ab847aa2fd12e1ce42d381c3ba81de13a64736f6c63430008000033",
  "immutableReferences": {},
  "source": "pragma solidity ^0.8.0;\n\n\n/**\n * @title A routing contract to distribute funds\n * @author Kasper De Blieck\n * @notice This contract will receive funds and distribute them to other shareholder addresses via a distribution key.\n * The contract owner is responsable for setting and updating the shareholders and triggering the payout.\n */\ncontract Router {\n \n    // Struct with shareholder info\n    struct ShareHolderStruct{\n        uint16 basePoint; //the amount of base points (0.1%, or 0.0001) he owns of incoming funds\n        uint16 _index; // _index in the shareholder in the _shareHolders array keeping all shareholders\n    }\n \n    // Mapping to link a shareholder address to it's data\n    mapping(address => ShareHolderStruct) private distributionKey;\n  \n    // Array to keep track of share holders present\n    address payable[] private _shareHolders;\n  \n    address payable private _contractOwner;\n  \n    // Used to make sure at most 100% is being routed\n    uint16 private _totalBasePoints;\n  \n    // MODIFIERS\n    modifier onlyOwner() {\n        require(msg.sender == _contractOwner, \"Only owner has access to this function\");\n        _;\n    }\n  \n    modifier onlyShareHolder() {\n        require(distributionKey[msg.sender].basePoint > 0, \"Only shareHolders with a share have access to this function\");\n        _;\n    }\n\n  \n    // FUNCTIONS\n    constructor (){\n        _contractOwner = payable(msg.sender);\n    }\n  \n    /**\n    * @dev receive and fallback in order to receive Ether on the contract address\n    */\n    receive() external payable {}\n    fallback() external payable {}\n\n    /**\n    * @notice Change the contract owner\n    * @param owner the address of the new contract owner\n    */\n\n    function setContractOwner(address payable owner) external onlyOwner {\n        _contractOwner = owner;\n    }\n  \n    /**\n    * @notice Function to add, remove or update shareholders.\n    * To remove, just set basePoint_ to 0.\n    * Before updating the distribution key, the existing balance will be settled\n    * @param shareHolder_ address of the new shareHolder\n    * @param basePoint_ the share of the shareHolder in basePoint (0.1%)\n    */\n    function setShareHolder(address payable shareHolder_, uint16 basePoint_) external onlyOwner{\n    // Check if the new value does not result in a payout of more than 100%\n        require((_totalBasePoints + basePoint_ - distributionKey[shareHolder_].basePoint ) < 1000,\n        \"The sum of distribution keys cannot be bigger than 100%.\");\n  \n        // If there are still funds left, pay them out before updating the distribution keys\n        if (address(this).balance > 0) {\n            distributeFunds();\n        }\n  \n        // Update sum of all shareholder basepoints\n        _totalBasePoints = _totalBasePoints + basePoint_ - distributionKey[shareHolder_].basePoint;\n      \n        // Set the share\n        distributionKey[shareHolder_].basePoint = basePoint_;\n      \n        // If the shareholder did not exist, add him to the list of shareholders and save the _index.\n        // Check for the edge case the _index in the mapping has default value 0, but is actual the first element in the list\n        if ((distributionKey[shareHolder_]._index == uint(0)) && (shareHolder_ != _shareHolders[0])){\n            distributionKey[shareHolder_]._index = uint16(_shareHolders.length);\n            _shareHolders.push(shareHolder_);\n        }\n        // Else, check if the shareholder needs to be deleted from the shareholder list\n        else if (basePoint_ == 0){\n        // Order does not mather in the list, overwrite the address-to-delete with the last address\n        // and delete the last address to avoid gaps in the array\n            _shareHolders[distributionKey[shareHolder_]._index] = _shareHolders[_shareHolders.length-1];\n            delete _shareHolders[_shareHolders.length-1];\n            distributionKey[shareHolder_]._index = 0;\n        }\n    }\n  \n    /**\n    * @notice Function for each shareholder to withdrawl his remaining funds from the contract.\n    */\n\n    function distributeFunds() public onlyOwner{\n  \n        // For each shareholder, calculate the share and send it\n        for (uint i = 0; i < _shareHolders.length; i++) {\n            uint256 share = address(this).balance * distributionKey[_shareHolders[i]].basePoint / 10000;\n            _shareHolders[i].transfer(share);\n        }\n  \n        // Send remaining funds to the contract owner\n        withDrawlAllFunds();\n  \n    }\n  \n\n    /**\n    * @notice Function for the owner to withdrawl all funds from the contract.\n    */\n    function withDrawlAllFunds() public onlyOwner {\n        _contractOwner.transfer(address(this).balance);\n        //selfdestruct(wallet) to delete the full contract?\n    }\n  \n  \n  \n  \n\n \n}\n",
  "sourcePath": "/Users/Baas/repos/envoy/routing-contract/Contracts/contracts/Router.sol",
  "compiler": {
    "name": "solc",
    "version": "0.8.0+commit.c7dfd78e.Emscripten.clang"
  },
  "schemaVersion": "3.4.2",
  "updatedAt": "2021-08-25T19:27:30.436Z",
  "devdoc": {
    "author": "Kasper De Blieck",
    "kind": "dev",
    "methods": {
      "setContractOwner(address)": {
        "params": {
          "owner": "the address of the new contract owner"
        }
      },
      "setShareHolder(address,uint16)": {
        "params": {
          "basePoint_": "the share of the shareHolder in basePoint (0.1%)",
          "shareHolder_": "address of the new shareHolder"
        }
      }
    },
    "title": "A routing contract to distribute funds",
    "version": 1
  },
  "userdoc": {
    "kind": "user",
    "methods": {
      "distributeFunds()": {
        "notice": "Function for each shareholder to withdrawl his remaining funds from the contract."
      },
      "setContractOwner(address)": {
        "notice": "Change the contract owner"
      },
      "setShareHolder(address,uint16)": {
        "notice": "Function to add, remove or update shareholders. To remove, just set basePoint_ to 0. Before updating the distribution key, the existing balance will be settled"
      },
      "withDrawlAllFunds()": {
        "notice": "Function for the owner to withdrawl all funds from the contract."
      }
    },
    "notice": "This contract will receive funds and distribute them to other shareholder addresses via a distribution key. The contract owner is responsable for setting and updating the shareholders and triggering the payout.",
    "version": 1
  }
}