{
  "contractName": "Router",
  "abi": [
    {
      "inputs": [],
      "stateMutability": "nonpayable",
      "type": "constructor"
    },
    {
      "stateMutability": "payable",
      "type": "fallback"
    },
    {
      "inputs": [],
      "name": "_contractOwner",
      "outputs": [
        {
          "internalType": "address payable",
          "name": "",
          "type": "address"
        }
      ],
      "stateMutability": "view",
      "type": "function"
    },
    {
      "inputs": [
        {
          "internalType": "uint256",
          "name": "",
          "type": "uint256"
        }
      ],
      "name": "_shareHolders",
      "outputs": [
        {
          "internalType": "address payable",
          "name": "",
          "type": "address"
        }
      ],
      "stateMutability": "view",
      "type": "function"
    },
    {
      "inputs": [],
      "name": "_totalBasePoints",
      "outputs": [
        {
          "internalType": "uint16",
          "name": "",
          "type": "uint16"
        }
      ],
      "stateMutability": "view",
      "type": "function"
    },
    {
      "inputs": [
        {
          "internalType": "address",
          "name": "",
          "type": "address"
        }
      ],
      "name": "distributionKey",
      "outputs": [
        {
          "internalType": "uint16",
          "name": "basePoint",
          "type": "uint16"
        },
        {
          "internalType": "uint16",
          "name": "_index",
          "type": "uint16"
        }
      ],
      "stateMutability": "view",
      "type": "function"
    },
    {
      "stateMutability": "payable",
      "type": "receive"
    },
    {
      "inputs": [
        {
          "internalType": "address payable",
          "name": "owner",
          "type": "address"
        }
      ],
      "name": "setContractOwner",
      "outputs": [],
      "stateMutability": "nonpayable",
      "type": "function"
    },
    {
      "inputs": [
        {
          "internalType": "address payable",
          "name": "shareHolder_",
          "type": "address"
        },
        {
          "internalType": "uint16",
          "name": "basePoint_",
          "type": "uint16"
        }
      ],
      "name": "setShareHolder",
      "outputs": [],
      "stateMutability": "nonpayable",
      "type": "function"
    },
    {
      "inputs": [],
      "name": "distributeFunds",
      "outputs": [],
      "stateMutability": "nonpayable",
      "type": "function"
    },
    {
      "inputs": [],
      "name": "withDrawlAllFunds",
      "outputs": [],
      "stateMutability": "nonpayable",
      "type": "function"
    }
  ],
  "bytecode": "0x608060405234801561001057600080fd5b5033600260006101000a81548173ffffffffffffffffffffffffffffffffffffffff021916908373ffffffffffffffffffffffffffffffffffffffff16021790555061125c806100616000396000f3fe60806040526004361061007f5760003560e01c8063a34d42b81161004e578063a34d42b81461010c578063ae4a951c14610135578063ae74d9e91461015e578063ec23bb9c1461019b57610086565b80631ebd0a36146100885780632bb3b114146100b357806339048c7a146100de5780633a6a4d2e146100f557610086565b3661008657005b005b34801561009457600080fd5b5061009d6101d9565b6040516100aa9190610f47565b60405180910390f35b3480156100bf57600080fd5b506100c86101ed565b6040516100d59190610eec565b60405180910390f35b3480156100ea57600080fd5b506100f3610213565b005b34801561010157600080fd5b5061010a61030e565b005b34801561011857600080fd5b50610133600480360381019061012e9190610d74565b610552565b005b34801561014157600080fd5b5061015c60048036038101906101579190610d9d565b610626565b005b34801561016a57600080fd5b5061018560048036038101906101809190610dd9565b610c78565b6040516101929190610eec565b60405180910390f35b3480156101a757600080fd5b506101c260048036038101906101bd9190610d4b565b610cb7565b6040516101d0929190610f62565b60405180910390f35b600260149054906101000a900461ffff1681565b600260009054906101000a900473ffffffffffffffffffffffffffffffffffffffff1681565b600260009054906101000a900473ffffffffffffffffffffffffffffffffffffffff1673ffffffffffffffffffffffffffffffffffffffff163373ffffffffffffffffffffffffffffffffffffffff16146102a3576040517f08c379a000000000000000000000000000000000000000000000000000000000815260040161029a90610f27565b60405180910390fd5b600260009054906101000a900473ffffffffffffffffffffffffffffffffffffffff1673ffffffffffffffffffffffffffffffffffffffff166108fc479081150290604051600060405180830381858888f1935050505015801561030b573d6000803e3d6000fd5b50565b600260009054906101000a900473ffffffffffffffffffffffffffffffffffffffff1673ffffffffffffffffffffffffffffffffffffffff163373ffffffffffffffffffffffffffffffffffffffff161461039e576040517f08c379a000000000000000000000000000000000000000000000000000000000815260040161039590610f27565b60405180910390fd5b600047905060005b600180549050811015610546576000612710600080600185815481106103f5577f4e487b7100000000000000000000000000000000000000000000000000000000600052603260045260246000fd5b9060005260206000200160009054906101000a900473ffffffffffffffffffffffffffffffffffffffff1673ffffffffffffffffffffffffffffffffffffffff1673ffffffffffffffffffffffffffffffffffffffff16815260200190815260200160002060000160009054906101000a900461ffff1661ffff168461047b9190611005565b6104859190610fd4565b9050600182815481106104c1577f4e487b7100000000000000000000000000000000000000000000000000000000600052603260045260246000fd5b9060005260206000200160009054906101000a900473ffffffffffffffffffffffffffffffffffffffff1673ffffffffffffffffffffffffffffffffffffffff166108fc829081150290604051600060405180830381858888f19350505050158015610531573d6000803e3d6000fd5b5050808061053e90611123565b9150506103a6565b5061054f610213565b50565b600260009054906101000a900473ffffffffffffffffffffffffffffffffffffffff1673ffffffffffffffffffffffffffffffffffffffff163373ffffffffffffffffffffffffffffffffffffffff16146105e2576040517f08c379a00000000000000000000000000000000000000000000000000000000081526004016105d990610f27565b60405180910390fd5b80600260006101000a81548173ffffffffffffffffffffffffffffffffffffffff021916908373ffffffffffffffffffffffffffffffffffffffff16021790555050565b600260009054906101000a900473ffffffffffffffffffffffffffffffffffffffff1673ffffffffffffffffffffffffffffffffffffffff163373ffffffffffffffffffffffffffffffffffffffff16146106b6576040517f08c379a00000000000000000000000000000000000000000000000000000000081526004016106ad90610f27565b60405180910390fd5b6127106000808473ffffffffffffffffffffffffffffffffffffffff1673ffffffffffffffffffffffffffffffffffffffff16815260200190815260200160002060000160009054906101000a900461ffff1682600260149054906101000a900461ffff166107259190610f9c565b61072f919061105f565b61ffff1610610773576040517f08c379a000000000000000000000000000000000000000000000000000000000815260040161076a90610f07565b60405180910390fd5b60004711156107855761078461030e565b5b6000808373ffffffffffffffffffffffffffffffffffffffff1673ffffffffffffffffffffffffffffffffffffffff16815260200190815260200160002060000160009054906101000a900461ffff1681600260149054906101000a900461ffff166107f19190610f9c565b6107fb919061105f565b600260146101000a81548161ffff021916908361ffff160217905550806000808473ffffffffffffffffffffffffffffffffffffffff1673ffffffffffffffffffffffffffffffffffffffff16815260200190815260200160002060000160006101000a81548161ffff021916908361ffff160217905550600061ffff166000808473ffffffffffffffffffffffffffffffffffffffff1673ffffffffffffffffffffffffffffffffffffffff16815260200190815260200160002060000160029054906101000a900461ffff1661ffff1614801561097b57506000600180549050148061097a5750600160008154811061091f577f4e487b7100000000000000000000000000000000000000000000000000000000600052603260045260246000fd5b9060005260206000200160009054906101000a900473ffffffffffffffffffffffffffffffffffffffff1673ffffffffffffffffffffffffffffffffffffffff168273ffffffffffffffffffffffffffffffffffffffff1614155b5b15610a49576001805490506000808473ffffffffffffffffffffffffffffffffffffffff1673ffffffffffffffffffffffffffffffffffffffff16815260200190815260200160002060000160026101000a81548161ffff021916908361ffff1602179055506001829080600181540180825580915050600190039060005260206000200160009091909190916101000a81548173ffffffffffffffffffffffffffffffffffffffff021916908373ffffffffffffffffffffffffffffffffffffffff160217905550610c74565b60008161ffff161415610c73576001808080549050610a689190611093565b81548110610a9f577f4e487b7100000000000000000000000000000000000000000000000000000000600052603260045260246000fd5b9060005260206000200160009054906101000a900473ffffffffffffffffffffffffffffffffffffffff1660016000808573ffffffffffffffffffffffffffffffffffffffff1673ffffffffffffffffffffffffffffffffffffffff16815260200190815260200160002060000160029054906101000a900461ffff1661ffff1681548110610b57577f4e487b7100000000000000000000000000000000000000000000000000000000600052603260045260246000fd5b9060005260206000200160006101000a81548173ffffffffffffffffffffffffffffffffffffffff021916908373ffffffffffffffffffffffffffffffffffffffff1602179055506001808080549050610bb19190611093565b81548110610be8577f4e487b7100000000000000000000000000000000000000000000000000000000600052603260045260246000fd5b9060005260206000200160006101000a81549073ffffffffffffffffffffffffffffffffffffffff021916905560008060008473ffffffffffffffffffffffffffffffffffffffff1673ffffffffffffffffffffffffffffffffffffffff16815260200190815260200160002060000160026101000a81548161ffff021916908361ffff1602179055505b5b5050565b60018181548110610c8857600080fd5b906000526020600020016000915054906101000a900473ffffffffffffffffffffffffffffffffffffffff1681565b60006020528060005260406000206000915090508060000160009054906101000a900461ffff16908060000160029054906101000a900461ffff16905082565b600081359050610d06816111ca565b92915050565b600081359050610d1b816111e1565b92915050565b600081359050610d30816111f8565b92915050565b600081359050610d458161120f565b92915050565b600060208284031215610d5d57600080fd5b6000610d6b84828501610cf7565b91505092915050565b600060208284031215610d8657600080fd5b6000610d9484828501610d0c565b91505092915050565b60008060408385031215610db057600080fd5b6000610dbe85828601610d0c565b9250506020610dcf85828601610d21565b9150509250929050565b600060208284031215610deb57600080fd5b6000610df984828501610d36565b91505092915050565b610e0b816110d9565b82525050565b6000610e1e603883610f8b565b91507f5468652073756d206f6620646973747269627574696f6e206b6579732063616e60008301527f6e6f7420626520626967676572207468616e20313030252e00000000000000006020830152604082019050919050565b6000610e84602683610f8b565b91507f4f6e6c79206f776e6572206861732061636365737320746f207468697320667560008301527f6e6374696f6e00000000000000000000000000000000000000000000000000006020830152604082019050919050565b610ee6816110eb565b82525050565b6000602082019050610f016000830184610e02565b92915050565b60006020820190508181036000830152610f2081610e11565b9050919050565b60006020820190508181036000830152610f4081610e77565b9050919050565b6000602082019050610f5c6000830184610edd565b92915050565b6000604082019050610f776000830185610edd565b610f846020830184610edd565b9392505050565b600082825260208201905092915050565b6000610fa7826110eb565b9150610fb2836110eb565b92508261ffff03821115610fc957610fc861116c565b5b828201905092915050565b6000610fdf82611119565b9150610fea83611119565b925082610ffa57610ff961119b565b5b828204905092915050565b600061101082611119565b915061101b83611119565b9250817fffffffffffffffffffffffffffffffffffffffffffffffffffffffffffffffff04831182151516156110545761105361116c565b5b828202905092915050565b600061106a826110eb565b9150611075836110eb565b9250828210156110885761108761116c565b5b828203905092915050565b600061109e82611119565b91506110a983611119565b9250828210156110bc576110bb61116c565b5b828203905092915050565b60006110d2826110f9565b9050919050565b60006110e4826110f9565b9050919050565b600061ffff82169050919050565b600073ffffffffffffffffffffffffffffffffffffffff82169050919050565b6000819050919050565b600061112e82611119565b91507fffffffffffffffffffffffffffffffffffffffffffffffffffffffffffffffff8214156111615761116061116c565b5b600182019050919050565b7f4e487b7100000000000000000000000000000000000000000000000000000000600052601160045260246000fd5b7f4e487b7100000000000000000000000000000000000000000000000000000000600052601260045260246000fd5b6111d3816110c7565b81146111de57600080fd5b50565b6111ea816110d9565b81146111f557600080fd5b50565b611201816110eb565b811461120c57600080fd5b50565b61121881611119565b811461122357600080fd5b5056fea26469706673582212201e948b82c8d6a354ffa4439657c6e40bec9dcf8e3dea1d285e7dae2ea9189e6564736f6c63430008000033",
  "immutableReferences": {},
  "source": "pragma solidity ^0.8.0;\n\n\n/**\n * @title A routing contract to distribute funds\n * @author Kasper De Blieck\n * @notice This contract will receive funds and distribute them to other shareholder addresses via a distribution key.\n * The contract owner is responsable for setting and updating the shareholders and triggering the payout.\n */\ncontract Router {\n \n    // Struct with shareholder info\n    struct ShareHolderStruct{\n        uint16 basePoint; //the amount of base points (0.1%, or 0.0001) he owns of incoming funds\n        uint16 _index; // _index in the shareholder in the _shareHolders array keeping all shareholders\n    }\n \n    // Mapping to link a shareholder address to it's data\n    mapping(address => ShareHolderStruct) public distributionKey;\n  \n    // Array to keep track of share holders present\n    address payable[] public _shareHolders;\n  \n    address payable public _contractOwner;\n  \n    // Used to make sure at most 100% is being routed\n    uint16 public _totalBasePoints;\n  \n    // MODIFIERS\n    modifier onlyOwner() {\n        require(msg.sender == _contractOwner, \"Only owner has access to this function\");\n        _;\n    }\n  \n    modifier onlyShareHolder() {\n        require(distributionKey[msg.sender].basePoint > 0, \"Only shareHolders with a share have access to this function\");\n        _;\n    }\n\n  \n    // FUNCTIONS\n    constructor (){\n        _contractOwner = payable(msg.sender);\n    }\n  \n    /**\n    * @dev receive and fallback in order to receive Ether on the contract address\n    */\n    receive() external payable {}\n    fallback() external payable {}\n\n    /**\n    * @notice Change the contract owner\n    * @param owner the address of the new contract owner\n    */\n    function setContractOwner(address payable owner) external onlyOwner {\n        _contractOwner = owner;\n    }\n  \n    /**\n    * @notice Function to add, remove or update shareholders.\n    * To remove, just set basePoint_ to 0.\n    * Before updating the distribution key, the existing balance will be settled\n    * @param shareHolder_ address of the new shareHolder\n    * @param basePoint_ the share of the shareHolder in basePoint (0.1%)\n    */\n    function setShareHolder(address payable shareHolder_, uint16 basePoint_) external onlyOwner{\n        // Check if the new value does not result in a payout of more than 100%\n        require((_totalBasePoints + basePoint_ - distributionKey[shareHolder_].basePoint ) < 10000,\n            \"The sum of distribution keys cannot be bigger than 100%.\");\n  \n        // If there are still funds left, pay them out before updating the distribution keys\n        if (address(this).balance > 0) {\n            distributeFunds();\n        }\n  \n        // Update sum of all shareholder basepoints\n        _totalBasePoints = _totalBasePoints + basePoint_ - distributionKey[shareHolder_].basePoint;\n      \n        // Set the share\n        distributionKey[shareHolder_].basePoint = basePoint_;\n      \n        // If the shareholder did not exist, add him to the list of shareholders and save the _index.\n        // Check for the edge case the _index in the mapping has default value 0, but is actual the first element in the list\n        if ((distributionKey[shareHolder_]._index == uint16(0)) && ((_shareHolders.length == 0) || (shareHolder_ != _shareHolders[0]))){\n            distributionKey[shareHolder_]._index = uint16(_shareHolders.length);\n            _shareHolders.push(shareHolder_);\n        }\n        // Else, check if the shareholder needs to be deleted from the shareholder list\n        else if (basePoint_ == 0){\n        // Order does not mather in the list, overwrite the address-to-delete with the last address\n        // and delete the last address to avoid gaps in the array\n            _shareHolders[distributionKey[shareHolder_]._index] = _shareHolders[_shareHolders.length-1];\n            delete _shareHolders[_shareHolders.length-1];\n            distributionKey[shareHolder_]._index = 0;\n        }\n    }\n  \n    /**\n    * @notice Function for each shareholder to withdrawl his remaining funds from the contract.\n    */\n    function distributeFunds() public onlyOwner{\n        // Keep track of initial share\n        uint256 totalShare = address(this).balance;\n        // For each shareholder, calculate the share and send it\n        for (uint i = 0; i < _shareHolders.length; i++) {\n            uint256 share = totalShare * uint256(distributionKey[_shareHolders[i]].basePoint) / 10000;\n            _shareHolders[i].transfer(share);\n        }\n  \n        // Send remaining funds to the contract owner\n        withDrawlAllFunds();\n  \n    }\n  \n\n    /**\n    * @notice Function for the owner to withdrawl all funds from the contract.\n    */\n    function withDrawlAllFunds() public onlyOwner{\n        _contractOwner.transfer(address(this).balance);\n    }\n \n}\n",
  "sourcePath": "/Users/Baas/repos/envoy/routing-contract/Contracts/contracts/Router.sol",
  "compiler": {
    "name": "solc",
    "version": "0.8.0+commit.c7dfd78e.Emscripten.clang"
  },
  "schemaVersion": "3.4.2",
  "updatedAt": "2021-08-28T10:54:04.949Z",
  "devdoc": {
    "author": "Kasper De Blieck",
    "kind": "dev",
    "methods": {
      "setContractOwner(address)": {
        "params": {
          "owner": "the address of the new contract owner"
        }
      },
      "setShareHolder(address,uint16)": {
        "params": {
          "basePoint_": "the share of the shareHolder in basePoint (0.1%)",
          "shareHolder_": "address of the new shareHolder"
        }
      }
    },
    "title": "A routing contract to distribute funds",
    "version": 1
  },
  "userdoc": {
    "kind": "user",
    "methods": {
      "distributeFunds()": {
        "notice": "Function for each shareholder to withdrawl his remaining funds from the contract."
      },
      "setContractOwner(address)": {
        "notice": "Change the contract owner"
      },
      "setShareHolder(address,uint16)": {
        "notice": "Function to add, remove or update shareholders. To remove, just set basePoint_ to 0. Before updating the distribution key, the existing balance will be settled"
      },
      "withDrawlAllFunds()": {
        "notice": "Function for the owner to withdrawl all funds from the contract."
      }
    },
    "notice": "This contract will receive funds and distribute them to other shareholder addresses via a distribution key. The contract owner is responsable for setting and updating the shareholders and triggering the payout.",
    "version": 1
  }
}