{
  "contractName": "Router",
  "abi": [
    {
      "inputs": [],
      "stateMutability": "nonpayable",
      "type": "constructor"
    },
    {
      "anonymous": false,
      "inputs": [
        {
          "indexed": true,
          "internalType": "address",
          "name": "to",
          "type": "address"
        },
        {
          "indexed": false,
          "internalType": "uint256",
          "name": "value",
          "type": "uint256"
        }
      ],
      "name": "DistributeFunds",
      "type": "event"
    },
    {
      "anonymous": false,
      "inputs": [
        {
          "indexed": true,
          "internalType": "address",
          "name": "previousOwner",
          "type": "address"
        },
        {
          "indexed": true,
          "internalType": "address",
          "name": "newOwner",
          "type": "address"
        }
      ],
      "name": "OwnershipTransferred",
      "type": "event"
    },
    {
      "stateMutability": "payable",
      "type": "fallback",
      "payable": true
    },
    {
      "inputs": [
        {
          "internalType": "address",
          "name": "",
          "type": "address"
        }
      ],
      "name": "distributionKey",
      "outputs": [
        {
          "internalType": "uint16",
          "name": "basePoint",
          "type": "uint16"
        },
        {
          "internalType": "uint16",
          "name": "index",
          "type": "uint16"
        }
      ],
      "stateMutability": "view",
      "type": "function",
      "constant": true
    },
    {
      "inputs": [],
      "name": "owner",
      "outputs": [
        {
          "internalType": "address",
          "name": "",
          "type": "address"
        }
      ],
      "stateMutability": "view",
      "type": "function",
      "constant": true
    },
    {
      "inputs": [],
      "name": "renounceOwnership",
      "outputs": [],
      "stateMutability": "nonpayable",
      "type": "function"
    },
    {
      "inputs": [
        {
          "internalType": "uint256",
          "name": "",
          "type": "uint256"
        }
      ],
      "name": "shareholders",
      "outputs": [
        {
          "internalType": "address payable",
          "name": "",
          "type": "address"
        }
      ],
      "stateMutability": "view",
      "type": "function",
      "constant": true
    },
    {
      "inputs": [],
      "name": "totalBasePoints",
      "outputs": [
        {
          "internalType": "uint16",
          "name": "",
          "type": "uint16"
        }
      ],
      "stateMutability": "view",
      "type": "function",
      "constant": true
    },
    {
      "inputs": [
        {
          "internalType": "address",
          "name": "newOwner",
          "type": "address"
        }
      ],
      "name": "transferOwnership",
      "outputs": [],
      "stateMutability": "nonpayable",
      "type": "function"
    },
    {
      "stateMutability": "payable",
      "type": "receive",
      "payable": true
    },
    {
      "inputs": [],
      "name": "getShareholdersLength",
      "outputs": [
        {
          "internalType": "uint256",
          "name": "",
          "type": "uint256"
        }
      ],
      "stateMutability": "view",
      "type": "function",
      "constant": true
    },
    {
      "inputs": [
        {
          "internalType": "address payable",
          "name": "shareHolder_",
          "type": "address"
        },
        {
          "internalType": "uint16",
          "name": "basePoint_",
          "type": "uint16"
        }
      ],
      "name": "setShareHolder",
      "outputs": [],
      "stateMutability": "nonpayable",
      "type": "function"
    },
    {
      "inputs": [],
      "name": "distributeFunds",
      "outputs": [],
      "stateMutability": "nonpayable",
      "type": "function"
    },
    {
      "inputs": [],
      "name": "withdrawlAllFunds",
      "outputs": [],
      "stateMutability": "nonpayable",
      "type": "function"
    }
  ],
  "bytecode": "0x608060405234801561001057600080fd5b5061002d61002261003260201b60201c565b61003a60201b60201c565b6100fe565b600033905090565b60008060009054906101000a900473ffffffffffffffffffffffffffffffffffffffff169050816000806101000a81548173ffffffffffffffffffffffffffffffffffffffff021916908373ffffffffffffffffffffffffffffffffffffffff1602179055508173ffffffffffffffffffffffffffffffffffffffff168173ffffffffffffffffffffffffffffffffffffffff167f8be0079c531659141344cd1fd0a4f28419497f9722a3daafe3b4186f6b6457e060405160405180910390a35050565b6116468061010d6000396000f3fe6080604052600436106100955760003560e01c8063ae4a951c11610059578063ae4a951c1461014b578063d040239e14610174578063ec23bb9c1461019f578063f2fde38b146101dd578063f3047940146102065761009c565b80633a6a4d2e1461009e5780636382126b146100b5578063715018a6146100cc5780638da5cb5b146100e3578063ab377daa1461010e5761009c565b3661009c57005b005b3480156100aa57600080fd5b506100b3610231565b005b3480156100c157600080fd5b506100ca610514565b005b3480156100d857600080fd5b506100e16105e0565b005b3480156100ef57600080fd5b506100f8610668565b6040516101059190611280565b60405180910390f35b34801561011a57600080fd5b506101356004803603810190610130919061110f565b610691565b604051610142919061129b565b60405180910390f35b34801561015757600080fd5b50610172600480360381019061016d91906110d3565b6106d0565b005b34801561018057600080fd5b50610189610e31565b604051610196919061135a565b60405180910390f35b3480156101ab57600080fd5b506101c660048036038101906101c191906110aa565b610e3e565b6040516101d4929190611331565b60405180910390f35b3480156101e957600080fd5b5061020460048036038101906101ff91906110aa565b610e7e565b005b34801561021257600080fd5b5061021b610f76565b6040516102289190611316565b60405180910390f35b610239610f8a565b73ffffffffffffffffffffffffffffffffffffffff16610257610668565b73ffffffffffffffffffffffffffffffffffffffff16146102ad576040517f08c379a00000000000000000000000000000000000000000000000000000000081526004016102a4906112f6565b60405180910390fd5b600047905060005b6002805490508110156105085760006127106001600060028581548110610305577f4e487b7100000000000000000000000000000000000000000000000000000000600052603260045260246000fd5b9060005260206000200160009054906101000a900473ffffffffffffffffffffffffffffffffffffffff1673ffffffffffffffffffffffffffffffffffffffff1673ffffffffffffffffffffffffffffffffffffffff16815260200190815260200160002060000160009054906101000a900461ffff1661ffff168461038b91906113ef565b61039591906113be565b9050600282815481106103d1577f4e487b7100000000000000000000000000000000000000000000000000000000600052603260045260246000fd5b9060005260206000200160009054906101000a900473ffffffffffffffffffffffffffffffffffffffff1673ffffffffffffffffffffffffffffffffffffffff166108fc829081150290604051600060405180830381858888f19350505050158015610441573d6000803e3d6000fd5b506002828154811061047c577f4e487b7100000000000000000000000000000000000000000000000000000000600052603260045260246000fd5b9060005260206000200160009054906101000a900473ffffffffffffffffffffffffffffffffffffffff1673ffffffffffffffffffffffffffffffffffffffff167f57f62f78cd64dbafa0af8dacd3628cfacb90f5bdfae93cea13cd5a590e848a10826040516104ec919061135a565b60405180910390a25080806105009061150d565b9150506102b5565b50610511610514565b50565b61051c610f8a565b73ffffffffffffffffffffffffffffffffffffffff1661053a610668565b73ffffffffffffffffffffffffffffffffffffffff1614610590576040517f08c379a0000000000000000000000000000000000000000000000000000000008152600401610587906112f6565b60405180910390fd5b610598610668565b73ffffffffffffffffffffffffffffffffffffffff166108fc479081150290604051600060405180830381858888f193505050501580156105dd573d6000803e3d6000fd5b50565b6105e8610f8a565b73ffffffffffffffffffffffffffffffffffffffff16610606610668565b73ffffffffffffffffffffffffffffffffffffffff161461065c576040517f08c379a0000000000000000000000000000000000000000000000000000000008152600401610653906112f6565b60405180910390fd5b6106666000610f92565b565b60008060009054906101000a900473ffffffffffffffffffffffffffffffffffffffff16905090565b600281815481106106a157600080fd5b906000526020600020016000915054906101000a900473ffffffffffffffffffffffffffffffffffffffff1681565b6106d8610f8a565b73ffffffffffffffffffffffffffffffffffffffff166106f6610668565b73ffffffffffffffffffffffffffffffffffffffff161461074c576040517f08c379a0000000000000000000000000000000000000000000000000000000008152600401610743906112f6565b60405180910390fd5b612710600160008473ffffffffffffffffffffffffffffffffffffffff1673ffffffffffffffffffffffffffffffffffffffff16815260200190815260200160002060000160009054906101000a900461ffff1682600360009054906101000a900461ffff166107bc9190611386565b6107c69190611449565b61ffff16111561080b576040517f08c379a0000000000000000000000000000000000000000000000000000000008152600401610802906112d6565b60405180910390fd5b600047111561081d5761081c610231565b5b600160008373ffffffffffffffffffffffffffffffffffffffff1673ffffffffffffffffffffffffffffffffffffffff16815260200190815260200160002060000160009054906101000a900461ffff1681600360009054906101000a900461ffff1661088a9190611386565b6108949190611449565b600360006101000a81548161ffff021916908361ffff16021790555080600160008473ffffffffffffffffffffffffffffffffffffffff1673ffffffffffffffffffffffffffffffffffffffff16815260200190815260200160002060000160006101000a81548161ffff021916908361ffff160217905550600061ffff16600160008473ffffffffffffffffffffffffffffffffffffffff1673ffffffffffffffffffffffffffffffffffffffff16815260200190815260200160002060000160029054906101000a900461ffff1661ffff16148015610a16575060006002805490501480610a15575060026000815481106109ba577f4e487b7100000000000000000000000000000000000000000000000000000000600052603260045260246000fd5b9060005260206000200160009054906101000a900473ffffffffffffffffffffffffffffffffffffffff1673ffffffffffffffffffffffffffffffffffffffff168273ffffffffffffffffffffffffffffffffffffffff1614155b5b15610ae557600280549050600160008473ffffffffffffffffffffffffffffffffffffffff1673ffffffffffffffffffffffffffffffffffffffff16815260200190815260200160002060000160026101000a81548161ffff021916908361ffff1602179055506002829080600181540180825580915050600190039060005260206000200160009091909190916101000a81548173ffffffffffffffffffffffffffffffffffffffff021916908373ffffffffffffffffffffffffffffffffffffffff160217905550610e2d565b60008161ffff161415610e2c57600160008373ffffffffffffffffffffffffffffffffffffffff1673ffffffffffffffffffffffffffffffffffffffff16815260200190815260200160002060000160029054906101000a900461ffff166001600060026001600280549050610b5b919061147d565b81548110610b92577f4e487b7100000000000000000000000000000000000000000000000000000000600052603260045260246000fd5b9060005260206000200160009054906101000a900473ffffffffffffffffffffffffffffffffffffffff1673ffffffffffffffffffffffffffffffffffffffff1673ffffffffffffffffffffffffffffffffffffffff16815260200190815260200160002060000160026101000a81548161ffff021916908361ffff16021790555060026001600280549050610c28919061147d565b81548110610c5f577f4e487b7100000000000000000000000000000000000000000000000000000000600052603260045260246000fd5b9060005260206000200160009054906101000a900473ffffffffffffffffffffffffffffffffffffffff166002600160008573ffffffffffffffffffffffffffffffffffffffff1673ffffffffffffffffffffffffffffffffffffffff16815260200190815260200160002060000160029054906101000a900461ffff1661ffff1681548110610d18577f4e487b7100000000000000000000000000000000000000000000000000000000600052603260045260246000fd5b9060005260206000200160006101000a81548173ffffffffffffffffffffffffffffffffffffffff021916908373ffffffffffffffffffffffffffffffffffffffff1602179055506002805480610d98577f4e487b7100000000000000000000000000000000000000000000000000000000600052603160045260246000fd5b6001900381819060005260206000200160006101000a81549073ffffffffffffffffffffffffffffffffffffffff021916905590556000600160008473ffffffffffffffffffffffffffffffffffffffff1673ffffffffffffffffffffffffffffffffffffffff16815260200190815260200160002060000160026101000a81548161ffff021916908361ffff1602179055505b5b5050565b6000600280549050905090565b60016020528060005260406000206000915090508060000160009054906101000a900461ffff16908060000160029054906101000a900461ffff16905082565b610e86610f8a565b73ffffffffffffffffffffffffffffffffffffffff16610ea4610668565b73ffffffffffffffffffffffffffffffffffffffff1614610efa576040517f08c379a0000000000000000000000000000000000000000000000000000000008152600401610ef1906112f6565b60405180910390fd5b600073ffffffffffffffffffffffffffffffffffffffff168173ffffffffffffffffffffffffffffffffffffffff161415610f6a576040517f08c379a0000000000000000000000000000000000000000000000000000000008152600401610f61906112b6565b60405180910390fd5b610f7381610f92565b50565b600360009054906101000a900461ffff1681565b600033905090565b60008060009054906101000a900473ffffffffffffffffffffffffffffffffffffffff169050816000806101000a81548173ffffffffffffffffffffffffffffffffffffffff021916908373ffffffffffffffffffffffffffffffffffffffff1602179055508173ffffffffffffffffffffffffffffffffffffffff168173ffffffffffffffffffffffffffffffffffffffff167f8be0079c531659141344cd1fd0a4f28419497f9722a3daafe3b4186f6b6457e060405160405180910390a35050565b600081359050611065816115b4565b92915050565b60008135905061107a816115cb565b92915050565b60008135905061108f816115e2565b92915050565b6000813590506110a4816115f9565b92915050565b6000602082840312156110bc57600080fd5b60006110ca84828501611056565b91505092915050565b600080604083850312156110e657600080fd5b60006110f48582860161106b565b925050602061110585828601611080565b9150509250929050565b60006020828403121561112157600080fd5b600061112f84828501611095565b91505092915050565b611141816114c3565b82525050565b611150816114b1565b82525050565b6000611163602683611375565b91507f4f776e61626c653a206e6577206f776e657220697320746865207a65726f206160008301527f64647265737300000000000000000000000000000000000000000000000000006020830152604082019050919050565b60006111c9603883611375565b91507f5468652073756d206f6620646973747269627574696f6e206b6579732063616e60008301527f6e6f7420626520626967676572207468616e20313030252e00000000000000006020830152604082019050919050565b600061122f602083611375565b91507f4f776e61626c653a2063616c6c6572206973206e6f7420746865206f776e65726000830152602082019050919050565b61126b816114d5565b82525050565b61127a81611503565b82525050565b60006020820190506112956000830184611147565b92915050565b60006020820190506112b06000830184611138565b92915050565b600060208201905081810360008301526112cf81611156565b9050919050565b600060208201905081810360008301526112ef816111bc565b9050919050565b6000602082019050818103600083015261130f81611222565b9050919050565b600060208201905061132b6000830184611262565b92915050565b60006040820190506113466000830185611262565b6113536020830184611262565b9392505050565b600060208201905061136f6000830184611271565b92915050565b600082825260208201905092915050565b6000611391826114d5565b915061139c836114d5565b92508261ffff038211156113b3576113b2611556565b5b828201905092915050565b60006113c982611503565b91506113d483611503565b9250826113e4576113e3611585565b5b828204905092915050565b60006113fa82611503565b915061140583611503565b9250817fffffffffffffffffffffffffffffffffffffffffffffffffffffffffffffffff048311821515161561143e5761143d611556565b5b828202905092915050565b6000611454826114d5565b915061145f836114d5565b92508282101561147257611471611556565b5b828203905092915050565b600061148882611503565b915061149383611503565b9250828210156114a6576114a5611556565b5b828203905092915050565b60006114bc826114e3565b9050919050565b60006114ce826114e3565b9050919050565b600061ffff82169050919050565b600073ffffffffffffffffffffffffffffffffffffffff82169050919050565b6000819050919050565b600061151882611503565b91507fffffffffffffffffffffffffffffffffffffffffffffffffffffffffffffffff82141561154b5761154a611556565b5b600182019050919050565b7f4e487b7100000000000000000000000000000000000000000000000000000000600052601160045260246000fd5b7f4e487b7100000000000000000000000000000000000000000000000000000000600052601260045260246000fd5b6115bd816114b1565b81146115c857600080fd5b50565b6115d4816114c3565b81146115df57600080fd5b50565b6115eb816114d5565b81146115f657600080fd5b50565b61160281611503565b811461160d57600080fd5b5056fea26469706673582212204500e6469ef523b87d9bd5ed399c92521fa1530f904929282f10e0d71ae824fa64736f6c63430008000033",
  "immutableReferences": {},
  "source": "//SPDX-License-Identifier: UNLICENSED\npragma solidity ^0.8.0;\n\nimport \"@openzeppelin/contracts/access/Ownable.sol\";\n\n/**\n * @title A routing contract to distribute funds\n * @author Kasper De Blieck\n * @notice This contract will receive funds and distribute them to other shareholder addresses via a distribution key.\n * The contract owner is responsable for setting and updating the shareholders and triggering the payout.\n */\ncontract Router is Ownable() {\n    \n    // Event to notify shareholders of pay outs\n    event DistributeFunds(address indexed to, uint256 value);\n\n    // Struct with shareholder info\n    struct ShareHolderStruct{\n        uint16 basePoint; //the amount of base points (0.1%, or 0.0001) he owns of incoming funds\n        uint16 index; // index in the shareholder in the shareholders array keeping all shareholders\n    }\n \n    // Mapping to link a shareholder address to it's data\n    mapping(address => ShareHolderStruct) public distributionKey;\n  \n    // Array to keep track of share holders present\n    address payable[] public shareholders;\n    \n    // Used to make sure at most 100% is being routed\n    uint16 public totalBasePoints;\n  \n    modifier onlyShareHolder() {\n        require(distributionKey[_msgSender()].basePoint > 0, \"Only shareholders with a share have access to this function\");\n        _;\n    }\n\n  \n    // FUNCTIONS\n    constructor (){\n    }\n  \n    /**\n    * @dev receive and fallback in order to receive Ether on the contract address\n    */\n    receive() external payable {}\n    fallback() external payable {}\n\n    /**\n     * @return Returns the amount of shareholders\n     */\n    function getShareholdersLength() view external returns(uint){\n        return shareholders.length;\n    }\n  \n    /**\n    * @notice Function to add, remove or update shareholders.\n    * To remove, just set basePoint_ to 0.\n    * Before updating the distribution key, the existing balance will be settled\n    * @param shareHolder_ address of the new shareholder\n    * @param basePoint_ the share of the shareholder in basePoint (0.1%)\n    */\n    function setShareHolder(address payable shareHolder_, uint16 basePoint_) external onlyOwner{\n        // Check if the new value does not result in a payout of more than 100%\n        require((totalBasePoints + basePoint_ - distributionKey[shareHolder_].basePoint ) <= 10000,\n            \"The sum of distribution keys cannot be bigger than 100%.\");\n  \n        // If there are still funds left, pay them out before updating the distribution keys\n        if (address(this).balance > 0) {\n            distributeFunds();\n        }\n  \n        // Update sum of all shareholder basepoints\n        totalBasePoints = totalBasePoints + basePoint_ - distributionKey[shareHolder_].basePoint;\n      \n        // Set the share\n        distributionKey[shareHolder_].basePoint = basePoint_;\n      \n        // If the shareholder did not exist, add him to the list of shareholders and save the index.\n        // Check for the edge case the index in the mapping has default value 0, but is actual the first element in the list\n        if ((distributionKey[shareHolder_].index == uint16(0)) && ((shareholders.length == 0) || (shareHolder_ != shareholders[0]))){\n            distributionKey[shareHolder_].index = uint16(shareholders.length);\n            shareholders.push(shareHolder_);\n        }\n        // Else, check if the shareholder needs to be deleted from the shareholder list\n        else if (basePoint_ == 0){\n        // Order does not mather in the list, overwrite the address-to-delete with the last address\n        // and delete the last address to avoid gaps in the array\n            distributionKey[shareholders[shareholders.length-1]].index = distributionKey[shareHolder_].index;\n            shareholders[distributionKey[shareHolder_].index] = shareholders[shareholders.length-1];\n\n            shareholders.pop();\n            distributionKey[shareHolder_].index = 0;\n        }\n    }\n  \n    /**\n    * @notice Function for each shareholder to withdrawl his remaining funds from the contract.\n    */\n    function distributeFunds() public onlyOwner{\n        // Keep track of initial share\n        uint256 totalShare = address(this).balance;\n        // For each shareholder, calculate the share and send it\n        for (uint i = 0; i < shareholders.length; i++) {\n            uint256 share = totalShare * uint256(distributionKey[shareholders[i]].basePoint) / 10000;\n            shareholders[i].transfer(share);\n            emit DistributeFunds(shareholders[i], share);\n        }\n  \n        // Send remaining funds to the contract owner\n        withdrawlAllFunds();\n  \n    }\n  \n\n    /**\n    * @notice Function for the owner to withdrawl all funds from the contract.\n    */\n    function withdrawlAllFunds() public onlyOwner{\n        payable(owner()).transfer(address(this).balance);\n    }\n \n}\n",
  "sourcePath": "/Users/Baas/repos/envoy/repos/routing-contract/Contracts/contracts/Router.sol",
  "compiler": {
    "name": "solc",
    "version": "0.8.0+commit.c7dfd78e.Emscripten.clang"
  },
  "schemaVersion": "3.4.2",
  "updatedAt": "2021-10-10T08:43:21.057Z",
  "networkType": "ethereum",
  "devdoc": {
    "author": "Kasper De Blieck",
    "kind": "dev",
    "methods": {
      "getShareholdersLength()": {
        "returns": {
          "_0": "Returns the amount of shareholders"
        }
      },
      "owner()": {
        "details": "Returns the address of the current owner."
      },
      "renounceOwnership()": {
        "details": "Leaves the contract without owner. It will not be possible to call `onlyOwner` functions anymore. Can only be called by the current owner. NOTE: Renouncing ownership will leave the contract without an owner, thereby removing any functionality that is only available to the owner."
      },
      "setShareHolder(address,uint16)": {
        "params": {
          "basePoint_": "the share of the shareholder in basePoint (0.1%)",
          "shareHolder_": "address of the new shareholder"
        }
      },
      "transferOwnership(address)": {
        "details": "Transfers ownership of the contract to a new account (`newOwner`). Can only be called by the current owner."
      }
    },
    "title": "A routing contract to distribute funds",
    "version": 1
  },
  "userdoc": {
    "kind": "user",
    "methods": {
      "distributeFunds()": {
        "notice": "Function for each shareholder to withdrawl his remaining funds from the contract."
      },
      "setShareHolder(address,uint16)": {
        "notice": "Function to add, remove or update shareholders. To remove, just set basePoint_ to 0. Before updating the distribution key, the existing balance will be settled"
      },
      "withdrawlAllFunds()": {
        "notice": "Function for the owner to withdrawl all funds from the contract."
      }
    },
    "notice": "This contract will receive funds and distribute them to other shareholder addresses via a distribution key. The contract owner is responsable for setting and updating the shareholders and triggering the payout.",
    "version": 1
  }
}