{
  "contractName": "Router",
  "abi": [
    {
      "inputs": [],
      "stateMutability": "nonpayable",
      "type": "constructor"
    },
    {
      "anonymous": false,
      "inputs": [
        {
          "indexed": true,
          "internalType": "address",
          "name": "to",
          "type": "address"
        },
        {
          "indexed": false,
          "internalType": "uint256",
          "name": "value",
          "type": "uint256"
        }
      ],
      "name": "DistributeFunds",
      "type": "event"
    },
    {
      "stateMutability": "payable",
      "type": "fallback",
      "payable": true
    },
    {
      "inputs": [],
      "name": "_contractOwner",
      "outputs": [
        {
          "internalType": "address payable",
          "name": "",
          "type": "address"
        }
      ],
      "stateMutability": "view",
      "type": "function",
      "constant": true
    },
    {
      "inputs": [
        {
          "internalType": "address",
          "name": "",
          "type": "address"
        }
      ],
      "name": "distributionKey",
      "outputs": [
        {
          "internalType": "uint16",
          "name": "basePoint",
          "type": "uint16"
        },
        {
          "internalType": "uint16",
          "name": "index",
          "type": "uint16"
        }
      ],
      "stateMutability": "view",
      "type": "function",
      "constant": true
    },
    {
      "inputs": [
        {
          "internalType": "uint256",
          "name": "",
          "type": "uint256"
        }
      ],
      "name": "shareholders",
      "outputs": [
        {
          "internalType": "address payable",
          "name": "",
          "type": "address"
        }
      ],
      "stateMutability": "view",
      "type": "function",
      "constant": true
    },
    {
      "inputs": [],
      "name": "totalBasePoints",
      "outputs": [
        {
          "internalType": "uint16",
          "name": "",
          "type": "uint16"
        }
      ],
      "stateMutability": "view",
      "type": "function",
      "constant": true
    },
    {
      "stateMutability": "payable",
      "type": "receive",
      "payable": true
    },
    {
      "inputs": [
        {
          "internalType": "address payable",
          "name": "owner",
          "type": "address"
        }
      ],
      "name": "setContractOwner",
      "outputs": [],
      "stateMutability": "nonpayable",
      "type": "function"
    },
    {
      "inputs": [
        {
          "internalType": "address payable",
          "name": "shareHolder_",
          "type": "address"
        },
        {
          "internalType": "uint16",
          "name": "basePoint_",
          "type": "uint16"
        }
      ],
      "name": "setShareHolder",
      "outputs": [],
      "stateMutability": "nonpayable",
      "type": "function"
    },
    {
      "inputs": [],
      "name": "distributeFunds",
      "outputs": [],
      "stateMutability": "nonpayable",
      "type": "function"
    },
    {
      "inputs": [],
      "name": "withdrawlAllFunds",
      "outputs": [],
      "stateMutability": "nonpayable",
      "type": "function"
    }
  ],
  "bytecode": "0x608060405234801561001057600080fd5b5033600260006101000a81548173ffffffffffffffffffffffffffffffffffffffff021916908373ffffffffffffffffffffffffffffffffffffffff16021790555061144e806100616000396000f3fe60806040526004361061007f5760003560e01c8063ab377daa1161004e578063ab377daa1461010a578063ae4a951c14610147578063ec23bb9c14610170578063f3047940146101ae57610086565b80632bb3b114146100885780633a6a4d2e146100b35780636382126b146100ca578063a34d42b8146100e157610086565b3661008657005b005b34801561009457600080fd5b5061009d6101d9565b6040516100aa91906110c3565b60405180910390f35b3480156100bf57600080fd5b506100c86101ff565b005b3480156100d657600080fd5b506100df6104f5565b005b3480156100ed57600080fd5b5061010860048036038101906101039190610f3c565b6105f0565b005b34801561011657600080fd5b50610131600480360381019061012c9190610fa1565b6106c4565b60405161013e91906110c3565b60405180910390f35b34801561015357600080fd5b5061016e60048036038101906101699190610f65565b610703565b005b34801561017c57600080fd5b5061019760048036038101906101929190610f13565b610e6b565b6040516101a5929190611139565b60405180910390f35b3480156101ba57600080fd5b506101c3610eab565b6040516101d0919061111e565b60405180910390f35b600260009054906101000a900473ffffffffffffffffffffffffffffffffffffffff1681565b600260009054906101000a900473ffffffffffffffffffffffffffffffffffffffff1673ffffffffffffffffffffffffffffffffffffffff163373ffffffffffffffffffffffffffffffffffffffff161461028f576040517f08c379a0000000000000000000000000000000000000000000000000000000008152600401610286906110fe565b60405180910390fd5b600047905060005b6001805490508110156104e9576000612710600080600185815481106102e6577f4e487b7100000000000000000000000000000000000000000000000000000000600052603260045260246000fd5b9060005260206000200160009054906101000a900473ffffffffffffffffffffffffffffffffffffffff1673ffffffffffffffffffffffffffffffffffffffff1673ffffffffffffffffffffffffffffffffffffffff16815260200190815260200160002060000160009054906101000a900461ffff1661ffff168461036c91906111f7565b61037691906111c6565b9050600182815481106103b2577f4e487b7100000000000000000000000000000000000000000000000000000000600052603260045260246000fd5b9060005260206000200160009054906101000a900473ffffffffffffffffffffffffffffffffffffffff1673ffffffffffffffffffffffffffffffffffffffff166108fc829081150290604051600060405180830381858888f19350505050158015610422573d6000803e3d6000fd5b506001828154811061045d577f4e487b7100000000000000000000000000000000000000000000000000000000600052603260045260246000fd5b9060005260206000200160009054906101000a900473ffffffffffffffffffffffffffffffffffffffff1673ffffffffffffffffffffffffffffffffffffffff167f57f62f78cd64dbafa0af8dacd3628cfacb90f5bdfae93cea13cd5a590e848a10826040516104cd9190611162565b60405180910390a25080806104e190611315565b915050610297565b506104f26104f5565b50565b600260009054906101000a900473ffffffffffffffffffffffffffffffffffffffff1673ffffffffffffffffffffffffffffffffffffffff163373ffffffffffffffffffffffffffffffffffffffff1614610585576040517f08c379a000000000000000000000000000000000000000000000000000000000815260040161057c906110fe565b60405180910390fd5b600260009054906101000a900473ffffffffffffffffffffffffffffffffffffffff1673ffffffffffffffffffffffffffffffffffffffff166108fc479081150290604051600060405180830381858888f193505050501580156105ed573d6000803e3d6000fd5b50565b600260009054906101000a900473ffffffffffffffffffffffffffffffffffffffff1673ffffffffffffffffffffffffffffffffffffffff163373ffffffffffffffffffffffffffffffffffffffff1614610680576040517f08c379a0000000000000000000000000000000000000000000000000000000008152600401610677906110fe565b60405180910390fd5b80600260006101000a81548173ffffffffffffffffffffffffffffffffffffffff021916908373ffffffffffffffffffffffffffffffffffffffff16021790555050565b600181815481106106d457600080fd5b906000526020600020016000915054906101000a900473ffffffffffffffffffffffffffffffffffffffff1681565b600260009054906101000a900473ffffffffffffffffffffffffffffffffffffffff1673ffffffffffffffffffffffffffffffffffffffff163373ffffffffffffffffffffffffffffffffffffffff1614610793576040517f08c379a000000000000000000000000000000000000000000000000000000000815260040161078a906110fe565b60405180910390fd5b6127106000808473ffffffffffffffffffffffffffffffffffffffff1673ffffffffffffffffffffffffffffffffffffffff16815260200190815260200160002060000160009054906101000a900461ffff1682600260149054906101000a900461ffff16610802919061118e565b61080c9190611251565b61ffff161115610851576040517f08c379a0000000000000000000000000000000000000000000000000000000008152600401610848906110de565b60405180910390fd5b6000471115610863576108626101ff565b5b6000808373ffffffffffffffffffffffffffffffffffffffff1673ffffffffffffffffffffffffffffffffffffffff16815260200190815260200160002060000160009054906101000a900461ffff1681600260149054906101000a900461ffff166108cf919061118e565b6108d99190611251565b600260146101000a81548161ffff021916908361ffff160217905550806000808473ffffffffffffffffffffffffffffffffffffffff1673ffffffffffffffffffffffffffffffffffffffff16815260200190815260200160002060000160006101000a81548161ffff021916908361ffff160217905550600061ffff166000808473ffffffffffffffffffffffffffffffffffffffff1673ffffffffffffffffffffffffffffffffffffffff16815260200190815260200160002060000160029054906101000a900461ffff1661ffff16148015610a59575060006001805490501480610a58575060016000815481106109fd577f4e487b7100000000000000000000000000000000000000000000000000000000600052603260045260246000fd5b9060005260206000200160009054906101000a900473ffffffffffffffffffffffffffffffffffffffff1673ffffffffffffffffffffffffffffffffffffffff168273ffffffffffffffffffffffffffffffffffffffff1614155b5b15610b27576001805490506000808473ffffffffffffffffffffffffffffffffffffffff1673ffffffffffffffffffffffffffffffffffffffff16815260200190815260200160002060000160026101000a81548161ffff021916908361ffff1602179055506001829080600181540180825580915050600190039060005260206000200160009091909190916101000a81548173ffffffffffffffffffffffffffffffffffffffff021916908373ffffffffffffffffffffffffffffffffffffffff160217905550610e67565b60008161ffff161415610e66576000808373ffffffffffffffffffffffffffffffffffffffff1673ffffffffffffffffffffffffffffffffffffffff16815260200190815260200160002060000160029054906101000a900461ffff166000806001808080549050610b999190611285565b81548110610bd0577f4e487b7100000000000000000000000000000000000000000000000000000000600052603260045260246000fd5b9060005260206000200160009054906101000a900473ffffffffffffffffffffffffffffffffffffffff1673ffffffffffffffffffffffffffffffffffffffff1673ffffffffffffffffffffffffffffffffffffffff16815260200190815260200160002060000160026101000a81548161ffff021916908361ffff1602179055506001808080549050610c649190611285565b81548110610c9b577f4e487b7100000000000000000000000000000000000000000000000000000000600052603260045260246000fd5b9060005260206000200160009054906101000a900473ffffffffffffffffffffffffffffffffffffffff1660016000808573ffffffffffffffffffffffffffffffffffffffff1673ffffffffffffffffffffffffffffffffffffffff16815260200190815260200160002060000160029054906101000a900461ffff1661ffff1681548110610d53577f4e487b7100000000000000000000000000000000000000000000000000000000600052603260045260246000fd5b9060005260206000200160006101000a81548173ffffffffffffffffffffffffffffffffffffffff021916908373ffffffffffffffffffffffffffffffffffffffff1602179055506001805480610dd3577f4e487b7100000000000000000000000000000000000000000000000000000000600052603160045260246000fd5b6001900381819060005260206000200160006101000a81549073ffffffffffffffffffffffffffffffffffffffff0219169055905560008060008473ffffffffffffffffffffffffffffffffffffffff1673ffffffffffffffffffffffffffffffffffffffff16815260200190815260200160002060000160026101000a81548161ffff021916908361ffff1602179055505b5b5050565b60006020528060005260406000206000915090508060000160009054906101000a900461ffff16908060000160029054906101000a900461ffff16905082565b600260149054906101000a900461ffff1681565b600081359050610ece816113bc565b92915050565b600081359050610ee3816113d3565b92915050565b600081359050610ef8816113ea565b92915050565b600081359050610f0d81611401565b92915050565b600060208284031215610f2557600080fd5b6000610f3384828501610ebf565b91505092915050565b600060208284031215610f4e57600080fd5b6000610f5c84828501610ed4565b91505092915050565b60008060408385031215610f7857600080fd5b6000610f8685828601610ed4565b9250506020610f9785828601610ee9565b9150509250929050565b600060208284031215610fb357600080fd5b6000610fc184828501610efe565b91505092915050565b610fd3816112cb565b82525050565b6000610fe660388361117d565b91507f5468652073756d206f6620646973747269627574696f6e206b6579732063616e60008301527f6e6f7420626520626967676572207468616e20313030252e00000000000000006020830152604082019050919050565b600061104c60268361117d565b91507f4f6e6c79206f776e6572206861732061636365737320746f207468697320667560008301527f6e6374696f6e00000000000000000000000000000000000000000000000000006020830152604082019050919050565b6110ae816112dd565b82525050565b6110bd8161130b565b82525050565b60006020820190506110d86000830184610fca565b92915050565b600060208201905081810360008301526110f781610fd9565b9050919050565b600060208201905081810360008301526111178161103f565b9050919050565b600060208201905061113360008301846110a5565b92915050565b600060408201905061114e60008301856110a5565b61115b60208301846110a5565b9392505050565b600060208201905061117760008301846110b4565b92915050565b600082825260208201905092915050565b6000611199826112dd565b91506111a4836112dd565b92508261ffff038211156111bb576111ba61135e565b5b828201905092915050565b60006111d18261130b565b91506111dc8361130b565b9250826111ec576111eb61138d565b5b828204905092915050565b60006112028261130b565b915061120d8361130b565b9250817fffffffffffffffffffffffffffffffffffffffffffffffffffffffffffffffff04831182151516156112465761124561135e565b5b828202905092915050565b600061125c826112dd565b9150611267836112dd565b92508282101561127a5761127961135e565b5b828203905092915050565b60006112908261130b565b915061129b8361130b565b9250828210156112ae576112ad61135e565b5b828203905092915050565b60006112c4826112eb565b9050919050565b60006112d6826112eb565b9050919050565b600061ffff82169050919050565b600073ffffffffffffffffffffffffffffffffffffffff82169050919050565b6000819050919050565b60006113208261130b565b91507fffffffffffffffffffffffffffffffffffffffffffffffffffffffffffffffff8214156113535761135261135e565b5b600182019050919050565b7f4e487b7100000000000000000000000000000000000000000000000000000000600052601160045260246000fd5b7f4e487b7100000000000000000000000000000000000000000000000000000000600052601260045260246000fd5b6113c5816112b9565b81146113d057600080fd5b50565b6113dc816112cb565b81146113e757600080fd5b50565b6113f3816112dd565b81146113fe57600080fd5b50565b61140a8161130b565b811461141557600080fd5b5056fea2646970667358221220f3b1e3e179fc5ea9abffd04215dff4783a230cabd372edfcd90aa680cabe2ddf64736f6c63430008000033",
  "immutableReferences": {},
  "source": "//SPDX-License-Identifier: UNLICENSED\"\npragma solidity ^0.8.0;\n\n\n/**\n * @title A routing contract to distribute funds\n * @author Kasper De Blieck\n * @notice This contract will receive funds and distribute them to other shareholder addresses via a distribution key.\n * The contract owner is responsable for setting and updating the shareholders and triggering the payout.\n */\ncontract Router {\n    \n    // Event to notify shareholders of pay outs\n    event DistributeFunds(address indexed to, uint256 value);\n\n    // Struct with shareholder info\n    struct ShareHolderStruct{\n        uint16 basePoint; //the amount of base points (0.1%, or 0.0001) he owns of incoming funds\n        uint16 index; // index in the shareholder in the shareholders array keeping all shareholders\n    }\n \n    // Mapping to link a shareholder address to it's data\n    mapping(address => ShareHolderStruct) public distributionKey;\n  \n    // Array to keep track of share holders present\n    address payable[] public shareholders;\n  \n    address payable public _contractOwner;\n  \n    // Used to make sure at most 100% is being routed\n    uint16 public totalBasePoints;\n  \n    // MODIFIERS\n    modifier onlyOwner() {\n        require(msg.sender == _contractOwner, \"Only owner has access to this function\");\n        _;\n    }\n  \n    modifier onlyShareHolder() {\n        require(distributionKey[msg.sender].basePoint > 0, \"Only shareholders with a share have access to this function\");\n        _;\n    }\n\n  \n    // FUNCTIONS\n    constructor (){\n        _contractOwner = payable(msg.sender);\n    }\n  \n    /**\n    * @dev receive and fallback in order to receive Ether on the contract address\n    */\n    receive() external payable {}\n    fallback() external payable {}\n\n    /**\n    * @notice Change the contract owner\n    * @param owner the address of the new contract owner\n    */\n    function setContractOwner(address payable owner) external onlyOwner {\n        _contractOwner = owner;\n    }\n  \n    /**\n    * @notice Function to add, remove or update shareholders.\n    * To remove, just set basePoint_ to 0.\n    * Before updating the distribution key, the existing balance will be settled\n    * @param shareHolder_ address of the new shareholder\n    * @param basePoint_ the share of the shareholder in basePoint (0.1%)\n    */\n    function setShareHolder(address payable shareHolder_, uint16 basePoint_) external onlyOwner{\n        // Check if the new value does not result in a payout of more than 100%\n        require((totalBasePoints + basePoint_ - distributionKey[shareHolder_].basePoint ) <= 10000,\n            \"The sum of distribution keys cannot be bigger than 100%.\");\n  \n        // If there are still funds left, pay them out before updating the distribution keys\n        if (address(this).balance > 0) {\n            distributeFunds();\n        }\n  \n        // Update sum of all shareholder basepoints\n        totalBasePoints = totalBasePoints + basePoint_ - distributionKey[shareHolder_].basePoint;\n      \n        // Set the share\n        distributionKey[shareHolder_].basePoint = basePoint_;\n      \n        // If the shareholder did not exist, add him to the list of shareholders and save the index.\n        // Check for the edge case the index in the mapping has default value 0, but is actual the first element in the list\n        if ((distributionKey[shareHolder_].index == uint16(0)) && ((shareholders.length == 0) || (shareHolder_ != shareholders[0]))){\n            distributionKey[shareHolder_].index = uint16(shareholders.length);\n            shareholders.push(shareHolder_);\n        }\n        // Else, check if the shareholder needs to be deleted from the shareholder list\n        else if (basePoint_ == 0){\n        // Order does not mather in the list, overwrite the address-to-delete with the last address\n        // and delete the last address to avoid gaps in the array\n            distributionKey[shareholders[shareholders.length-1]].index = distributionKey[shareHolder_].index;\n            shareholders[distributionKey[shareHolder_].index] = shareholders[shareholders.length-1];\n\n            shareholders.pop();\n            distributionKey[shareHolder_].index = 0;\n        }\n    }\n  \n    /**\n    * @notice Function for each shareholder to withdrawl his remaining funds from the contract.\n    */\n    function distributeFunds() public onlyOwner{\n        // Keep track of initial share\n        uint256 totalShare = address(this).balance;\n        // For each shareholder, calculate the share and send it\n        for (uint i = 0; i < shareholders.length; i++) {\n            uint256 share = totalShare * uint256(distributionKey[shareholders[i]].basePoint) / 10000;\n            shareholders[i].transfer(share);\n            emit DistributeFunds(shareholders[i], share);\n        }\n  \n        // Send remaining funds to the contract owner\n        withdrawlAllFunds();\n  \n    }\n  \n\n    /**\n    * @notice Function for the owner to withdrawl all funds from the contract.\n    */\n    function withdrawlAllFunds() public onlyOwner{\n        _contractOwner.transfer(address(this).balance);\n    }\n \n}\n",
  "sourcePath": "/Users/Baas/repos/envoy/routing-contract/Contracts/contracts/Router.sol",
  "compiler": {
    "name": "solc",
    "version": "0.8.0+commit.c7dfd78e.Emscripten.clang"
  },
  "schemaVersion": "3.4.2",
  "updatedAt": "2021-08-30T19:23:06.846Z",
  "networkType": "ethereum",
  "devdoc": {
    "author": "Kasper De Blieck",
    "kind": "dev",
    "methods": {
      "setContractOwner(address)": {
        "params": {
          "owner": "the address of the new contract owner"
        }
      },
      "setShareHolder(address,uint16)": {
        "params": {
          "basePoint_": "the share of the shareholder in basePoint (0.1%)",
          "shareHolder_": "address of the new shareholder"
        }
      }
    },
    "title": "A routing contract to distribute funds",
    "version": 1
  },
  "userdoc": {
    "kind": "user",
    "methods": {
      "distributeFunds()": {
        "notice": "Function for each shareholder to withdrawl his remaining funds from the contract."
      },
      "setContractOwner(address)": {
        "notice": "Change the contract owner"
      },
      "setShareHolder(address,uint16)": {
        "notice": "Function to add, remove or update shareholders. To remove, just set basePoint_ to 0. Before updating the distribution key, the existing balance will be settled"
      },
      "withdrawlAllFunds()": {
        "notice": "Function for the owner to withdrawl all funds from the contract."
      }
    },
    "notice": "This contract will receive funds and distribute them to other shareholder addresses via a distribution key. The contract owner is responsable for setting and updating the shareholders and triggering the payout.",
    "version": 1
  }
}